{
  "contractName": "Casino",
  "abi": [
    {
      "constant": true,
      "inputs": [],
      "name": "numberOfBets",
      "outputs": [
        {
          "name": "",
          "type": "uint256"
        }
      ],
      "payable": false,
      "stateMutability": "view",
      "type": "function"
    },
    {
      "constant": true,
      "inputs": [
        {
          "name": "",
          "type": "address"
        }
      ],
      "name": "playerInfo",
      "outputs": [
        {
          "name": "amountBet",
          "type": "uint256"
        },
        {
          "name": "numberSelected",
          "type": "uint256"
        }
      ],
      "payable": false,
      "stateMutability": "view",
      "type": "function"
    },
    {
      "constant": true,
      "inputs": [],
      "name": "owner",
      "outputs": [
        {
          "name": "",
          "type": "address"
        }
      ],
      "payable": false,
      "stateMutability": "view",
      "type": "function"
    },
    {
      "constant": true,
      "inputs": [],
      "name": "minimumBet",
      "outputs": [
        {
          "name": "",
          "type": "uint256"
        }
      ],
      "payable": false,
      "stateMutability": "view",
      "type": "function"
    },
    {
      "constant": true,
      "inputs": [],
      "name": "maxAmountOfBets",
      "outputs": [
        {
          "name": "",
          "type": "uint256"
        }
      ],
      "payable": false,
      "stateMutability": "view",
      "type": "function"
    },
    {
      "constant": true,
      "inputs": [
        {
          "name": "",
          "type": "uint256"
        }
      ],
      "name": "players",
      "outputs": [
        {
          "name": "",
          "type": "address"
        }
      ],
      "payable": false,
      "stateMutability": "view",
      "type": "function"
    },
    {
      "constant": true,
      "inputs": [],
      "name": "totalBet",
      "outputs": [
        {
          "name": "",
          "type": "uint256"
        }
      ],
      "payable": false,
      "stateMutability": "view",
      "type": "function"
    },
    {
      "inputs": [
        {
          "name": "_minimumBet",
          "type": "uint256"
        }
      ],
      "payable": false,
      "stateMutability": "nonpayable",
      "type": "constructor"
    },
    {
      "payable": true,
      "stateMutability": "payable",
      "type": "fallback"
    },
    {
      "constant": false,
      "inputs": [],
      "name": "kill",
      "outputs": [],
      "payable": false,
      "stateMutability": "nonpayable",
      "type": "function"
    },
    {
      "constant": false,
      "inputs": [
        {
          "name": "player",
          "type": "address"
        }
      ],
      "name": "checkPlayerExists",
      "outputs": [
        {
          "name": "",
          "type": "bool"
        }
      ],
      "payable": false,
      "stateMutability": "nonpayable",
      "type": "function"
    },
    {
      "constant": false,
      "inputs": [
        {
          "name": "numberSelected",
          "type": "uint256"
        }
      ],
      "name": "bet",
      "outputs": [],
      "payable": true,
      "stateMutability": "payable",
      "type": "function"
    },
    {
      "constant": false,
      "inputs": [],
      "name": "generateNumberWinner",
      "outputs": [],
      "payable": false,
      "stateMutability": "nonpayable",
      "type": "function"
    },
    {
      "constant": false,
      "inputs": [
        {
          "name": "numberWinner",
          "type": "uint256"
        }
      ],
      "name": "distributePrizes",
      "outputs": [],
      "payable": false,
      "stateMutability": "nonpayable",
      "type": "function"
    }
  ],
  "bytecode": "0x606060405267016345785d8a0000600155600a600455341561002057600080fd5b604051602080610a3f83398101604052808051906020019091905050336000806101000a81548173ffffffffffffffffffffffffffffffffffffffff021916908373ffffffffffffffffffffffffffffffffffffffff16021790555060008114151561008e57806001819055505b506109a18061009e6000396000f3006060604052600436106100ba576000357c0100000000000000000000000000000000000000000000000000000000900463ffffffff1680630a50e361146100bc5780632ca8c6d3146100d15780634081d916146100fa57806341c0e1b51461014b5780634b114691146101605780636ca3fc3b146101b45780637365870b146101d75780638da5cb5b146101ef578063c38a8afd14610244578063e08a96cd1461026d578063f71d96cb14610296578063fe5e1853146102f9575b005b34156100c757600080fd5b6100cf610322565b005b34156100dc57600080fd5b6100e4610342565b6040518082815260200191505060405180910390f35b341561010557600080fd5b610131600480803573ffffffffffffffffffffffffffffffffffffffff16906020019091905050610348565b604051808215151515815260200191505060405180910390f35b341561015657600080fd5b61015e6103ec565b005b341561016b57600080fd5b610197600480803573ffffffffffffffffffffffffffffffffffffffff1690602001909190505061047d565b604051808381526020018281526020019250505060405180910390f35b34156101bf57600080fd5b6101d560048080359060200190919050506104a1565b005b6101ed60048080359060200190919050506106ea565b005b34156101fa57600080fd5b610202610843565b604051808273ffffffffffffffffffffffffffffffffffffffff1673ffffffffffffffffffffffffffffffffffffffff16815260200191505060405180910390f35b341561024f57600080fd5b610257610868565b6040518082815260200191505060405180910390f35b341561027857600080fd5b61028061086e565b6040518082815260200191505060405180910390f35b34156102a157600080fd5b6102b76004808035906020019091905050610874565b604051808273ffffffffffffffffffffffffffffffffffffffff1673ffffffffffffffffffffffffffffffffffffffff16815260200191505060405180910390f35b341561030457600080fd5b61030c6108b3565b6040518082815260200191505060405180910390f35b60006001600a4381151561033257fe5b0601905061033f816104a1565b50565b60035481565b600080600090505b6005805490508110156103e1578273ffffffffffffffffffffffffffffffffffffffff1660058281548110151561038357fe5b906000526020600020900160009054906101000a900473ffffffffffffffffffffffffffffffffffffffff1673ffffffffffffffffffffffffffffffffffffffff1614156103d457600191506103e6565b8080600101915050610350565b600091505b50919050565b6000809054906101000a900473ffffffffffffffffffffffffffffffffffffffff1673ffffffffffffffffffffffffffffffffffffffff163373ffffffffffffffffffffffffffffffffffffffff16141561047b576000809054906101000a900473ffffffffffffffffffffffffffffffffffffffff1673ffffffffffffffffffffffffffffffffffffffff16ff5b565b60066020528060005260406000206000915090508060000154908060010154905082565b6104a96108b9565b6000806000806000809450600093505b6005805490508410156105fb576005848154811015156104d557fe5b906000526020600020900160009054906101000a900473ffffffffffffffffffffffffffffffffffffffff16925086600660008573ffffffffffffffffffffffffffffffffffffffff1673ffffffffffffffffffffffffffffffffffffffff16815260200190815260200160002060010154141561059c5782868660648110151561055c57fe5b602002019073ffffffffffffffffffffffffffffffffffffffff16908173ffffffffffffffffffffffffffffffffffffffff168152505084806001019550505b600660008473ffffffffffffffffffffffffffffffffffffffff1673ffffffffffffffffffffffffffffffffffffffff1681526020019081526020016000206000808201600090556001820160009055505083806001019450506104b9565b600060058161060a91906108f8565b50606460025481151561061957fe5b049150600090505b848110156106d157600073ffffffffffffffffffffffffffffffffffffffff16868260648110151561064f57fe5b602002015173ffffffffffffffffffffffffffffffffffffffff161415156106c457858160648110151561067f57fe5b602002015173ffffffffffffffffffffffffffffffffffffffff166108fc839081150290604051600060405180830381858888f1935050505015156106c357600080fd5b5b8080600101915050610621565b6000600281905550600060038190555050505050505050565b6106f333610348565b1515156106ff57600080fd5b600181101580156107115750600a8111155b151561071c57600080fd5b600154341015151561072d57600080fd5b34600660003373ffffffffffffffffffffffffffffffffffffffff1673ffffffffffffffffffffffffffffffffffffffff1681526020019081526020016000206000018190555080600660003373ffffffffffffffffffffffffffffffffffffffff1673ffffffffffffffffffffffffffffffffffffffff16815260200190815260200160002060010181905550600360008154809291906001019190505550600580548060010182816107e19190610924565b9160005260206000209001600033909190916101000a81548173ffffffffffffffffffffffffffffffffffffffff021916908373ffffffffffffffffffffffffffffffffffffffff160217905550503460026000828254019250508190555050565b6000809054906101000a900473ffffffffffffffffffffffffffffffffffffffff1681565b60015481565b60045481565b60058181548110151561088357fe5b90600052602060002090016000915054906101000a900473ffffffffffffffffffffffffffffffffffffffff1681565b60025481565b610c80604051908101604052806064905b600073ffffffffffffffffffffffffffffffffffffffff168152602001906001900390816108ca5790505090565b81548183558181151161091f5781836000526020600020918201910161091e9190610950565b5b505050565b81548183558181151161094b5781836000526020600020918201910161094a9190610950565b5b505050565b61097291905b8082111561096e576000816000905550600101610956565b5090565b905600a165627a7a7230582003dc6244e4573a89fb77fc0d42a44f23f49dfcca201caaca164dc3b5f34345fb0029",
  "source": "/* to see if it works correctly for not\ndeploying vulnerable code that could make\nsomeone lose real money. */\n\npragma solidity ^0.4.11;\n\ncontract Casino {\n  address public owner;\n  uint256 public minimumBet = 100 finney;\n  uint256 public totalBet;\n  uint256 public numberOfBets;\n  uint256 public maxAmountOfBets = 10;\n  address[] public players;\n\n  struct Player {\n    uint256 amountBet;\n    uint256 numberSelected;\n  }\n\n  mapping(address => Player) public playerInfo;\n\n// fallback function, executed when you send ether to contract without executing\n// any function\n  function() public payable {}\n\n// constructor wherein we assign owner as the one who sent the message\n  function Casino(uint256 _minimumBet) public{\n    owner = msg.sender;\n    if (_minimumBet != 0) minimumBet = _minimumBet;\n  }\n\n// kill the contract if the owner wants to\n  function kill() public {\n    if(msg.sender == owner) selfdestruct(owner);\n  }\n\n// constant specifies that it is reading a value that already exists from\n// the blockchain\n  function checkPlayerExists(address player)public returns(bool) {\n    for (uint256 i = 0; i < players.length; i++){\n      if(players[i] == player) return true;\n    }\n    return false;\n  }\n\n\n// payable is a modifier that indicates that the function can receive\n// ether when you execute it.\n  function bet(uint256 numberSelected) public payable {\n// the require function is like if statement, must be true for ether payment\n// if false then payment reverted\n    require(!checkPlayerExists(msg.sender));\n    require(numberSelected >= 1 && numberSelected <= 10);\n    require(msg.value >= minimumBet);\n\n    playerInfo[msg.sender].amountBet = msg.value;\n    playerInfo[msg.sender].numberSelected = numberSelected;\n    numberOfBets ++;\n    players.push(msg.sender);\n    totalBet += msg.value;\n\n  }\n\n// generates a number between 1 and 10 that will be winner\n  function generateNumberWinner() public {\n    // insecure method since miners can extract block number and determine winner\n    uint256 numberGenerated = block.number % 10 + 1;\n    distributePrizes(numberGenerated);\n  }\n\n\n  // sends the corresponding ether to each winner depending on total bets\n  function distributePrizes(uint256 numberWinner) public {\n    //temp array\n    address[100] memory winners;\n    uint256 count = 0;\n    for(uint256 i = 0; i < players.length; i++){\n      address playerAddress = players[i];\n      if (playerInfo[playerAddress].numberSelected == numberWinner){\n        winners[count] = playerAddress;\n        count ++;\n      }\n      // Delete all players\n      delete playerInfo[playerAddress];\n    }\n    // delte all the players array\n    players.length = 0;\n\n    uint256 winnerEtherAmount  = totalBet / winners.length;\n\n    for(uint256 j = 0; j < count; j++){\n      //check address is not empty\n      if(winners[j] != address(0))\n      winners[j].transfer(winnerEtherAmount);\n    }\n    totalBet = 0;\n    numberOfBets = 0;\n  }\n}\n",
  "sourcePath": "/Users/tejasparab/Documents/Semester2/WebDevelopment/casino-ethereum/contracts/Casino.sol",
  "compiler": {
    "name": "solc",
    "version": "0.4.19+commit.c4cbbb05.Emscripten.clang"
  },
  "schemaVersion": "2.0.0",
  "updatedAt": "2018-03-29T02:02:24.162Z"
}